{
  "contractName": "testVotingSystem",
  "abi": [
    {
      "constant": false,
      "inputs": [
        {
          "name": "notOwner",
          "type": "address"
        },
        {
          "name": "committee",
          "type": "address"
        }
      ],
      "name": "failCommitteeMember",
      "outputs": [
        {
          "name": "success",
          "type": "bool"
        }
      ],
      "payable": false,
      "stateMutability": "nonpayable",
      "type": "function"
    }
  ],
  "bytecode": "0x608060405234801561001057600080fd5b50610106806100206000396000f3fe608060405260043610603f576000357c0100000000000000000000000000000000000000000000000000000000900463ffffffff16806394a79c5f146044575b600080fd5b348015604f57600080fd5b5060af60048036036040811015606457600080fd5b81019080803573ffffffffffffffffffffffffffffffffffffffff169060200190929190803573ffffffffffffffffffffffffffffffffffffffff16906020019092919050505060c9565b604051808215151515815260200191505060405180910390f35b60008060009050809150509291505056fea165627a7a72305820f574e425d45b2c888b044c5fd236ec6ea21f37f03b48468967bb6589086aa96a0029",
  "source": "pragma solidity >= 0.4.24;\n\n\ncontract VotingSystem {\n    uint constant committeePercentNeeded = 75;\n\n    uint constant STATE_ADD_COMMITTEE = 0;\n    uint constant STATE_REGISTRATION = 1;\n    uint constant STATE_PREVOTING = 2;\n    uint constant STATE_VOTING = 3;\n    uint constant STATE_FINALIZED = 4;\n\n\n\n    address admin;\n    address winner;\n    mapping (address => bool) committee;\n    mapping (address => bool) population;\n    mapping (address => uint) candidates;\n    address currentFirst;\n    address currentSecond;\n    uint committeeSize;\n    uint populationSize;\n    uint populationLeftToVote;\n    uint beginVoting;\n    uint terminateVoting;\n    uint state;\n\n    constructor() public {\n        admin = msg.sender;\n        state = STATE_ADD_COMMITTEE;\n        beginVoting = 0;\n        terminateVoting = 0;\n        committeeSize = 0;\n        populationSize = 0;\n    }\n\n    function addCommittee(address addr) public {\n        require(state == STATE_ADD_COMMITTEE);\n        require(msg.sender == admin);\n        require(!committee[addr]);\n        committee[addr] = true;\n        committeeSize += 1;\n    }\n    function beginRegistration() public {\n        require(msg.sender == admin);\n        require(state == STATE_ADD_COMMITTEE);\n\n        admin = 0x0000000000000000000000000000000000000000;\n        state = STATE_REGISTRATION;\n    }\n\n    function addVoter() public {\n        require(state == STATE_REGISTRATION);\n        require(!population[msg.sender]);\n        population[msg.sender] = true;\n        populationSize += 1;\n    }\n\n    function initializeVoting() public {\n        require(state == STATE_REGISTRATION);\n        require(committee[msg.sender]);\n\n        state = STATE_PREVOTING;\n    }\n\n    function confirmVoting() public {\n        require(state == STATE_PREVOTING);\n        require(committee[msg.sender]);\n\n        beginVoting += 1;\n        committee[msg.sender] = false;\n        if(beginVoting >= (committeePercentNeeded * committeeSize) / 100) {\n            state = STATE_VOTING;\n            populationLeftToVote = populationSize;\n        }\n    }\n\n    function denyVoting() public {\n        require(state == STATE_PREVOTING);\n        require(committee[msg.sender]);\n\n        terminateVoting += 1;\n        committee[msg.sender] = false;\n    }\n\n    function vote(address addr) public {\n        require(state == STATE_VOTING);\n        require(population[msg.sender]);\n\n        candidates[addr] += 1;\n        populationLeftToVote -= 1;\n        population[msg.sender] = false;\n\n        if(addr != currentFirst && candidates[addr] > candidates[currentFirst]) {\n            currentSecond = currentFirst;\n            currentFirst = addr;\n            } else if(addr != currentFirst && candidates[addr] > candidates[currentSecond]) {\n                currentSecond = addr;\n            }\n            if(candidates[currentFirst] > candidates[currentSecond] + populationLeftToVote) {\n                state = STATE_FINALIZED;\n                winner = currentFirst;\n            }\n        }\n\n        function getWinner() public view returns (address won) {\n            require(state == STATE_FINALIZED);\n            return winner;\n        }\n\n        function queryVotersLeft() public view returns (uint votersLeft) {\n            return populationLeftToVote;\n        }\n\n        function queryNumberVoters() public view returns (uint voters) {\n            return populationSize;\n        }\n\n        function queryCommittee(address addr) public view returns (bool canVoteAsCommittee) {\n            return committee[addr];\n        }\n\n        function queryIsRegistered() public view returns (bool canVote) {\n            return population[msg.sender];\n        }\n\n        function queryStateInt() public view returns (uint stateInt) {\n            return state;\n        }\n\n        function queryState() public view returns (string memory currentState) {\n            if(state == STATE_ADD_COMMITTEE) {\n                return \"adding committee members\";\n            }\n            if(state == STATE_REGISTRATION) {\n                return \"registration of voters\";\n            }\n            if(state == STATE_PREVOTING) {\n                return \"prevoting verification\";\n            }\n            if(state == STATE_VOTING) {\n                return \"voting phase\";\n            }\n            if(state == STATE_FINALIZED) {\n                return \"finalized\";\n            }\n            return \"error\";\n        }\n\n        function queryCurrentFirst() public view returns (address inFirst) {\n            return currentFirst;\n        }\n\n        function queryCurrentSecond() public view returns (address inSecond) {\n            return currentSecond;\n        }\n    }\n\ncontract ThrowProxy {\n    address public _target;\n    bytes _data;\n\n    constructor(address target) public {\n        _target = target;\n    }\n\n    function () external {\n        _data = msg.data;\n    }\n\n    function execute() public returns (bool) {\n        bool r;\n        bytes memory ret;\n        (r, ret) = _target.call(_data);\n\n        return r;\n    }\n}\n\ncontract testVotingSystem {\n\n    function failCommitteeMember(address notOwner, address committee) public returns (bool success) {\n        //VotingSytem votingSystem = new VotingSytem();   // pass in as argument\n        //ThrowProxy throwproxy = new ThrowProxy(address(notOwner));  // pass in as argument\n        //VotingSytem(address(throwproxy)).addCommittee(committee);\n        //bool r = throwproxy.execute.gas(200000)();\n        bool r = false;\n        return r;\n    }\n\n}\n\n",
  "sourcePath": "/home/maxwell/Blockchain/truffleProjects/VotingProject/contracts/VotingSystem.sol",
  "compiler": {
    "name": "solc",
    "version": "0.5.0+commit.1d4f565a.Emscripten.clang"
  },
  "schemaVersion": "3.0.1",
  "updatedAt": "2019-02-25T20:15:03.899Z",
  "devdoc": {
    "methods": {}
  },
  "userdoc": {
    "methods": {}
  }
}