{
  "contractName": "VotingSystem",
  "abi": [
    {
      "inputs": [],
      "payable": false,
      "stateMutability": "nonpayable",
      "type": "constructor"
    },
    {
      "constant": false,
      "inputs": [
        {
          "name": "addr",
          "type": "address"
        }
      ],
      "name": "addCommittee",
      "outputs": [],
      "payable": false,
      "stateMutability": "nonpayable",
      "type": "function"
    },
    {
      "constant": false,
      "inputs": [],
      "name": "beginRegistration",
      "outputs": [],
      "payable": false,
      "stateMutability": "nonpayable",
      "type": "function"
    },
    {
      "constant": false,
      "inputs": [],
      "name": "addVoter",
      "outputs": [],
      "payable": false,
      "stateMutability": "nonpayable",
      "type": "function"
    },
    {
      "constant": false,
      "inputs": [],
      "name": "initializeVoting",
      "outputs": [],
      "payable": false,
      "stateMutability": "nonpayable",
      "type": "function"
    },
    {
      "constant": false,
      "inputs": [],
      "name": "confirmVoting",
      "outputs": [],
      "payable": false,
      "stateMutability": "nonpayable",
      "type": "function"
    },
    {
      "constant": false,
      "inputs": [],
      "name": "denyVoting",
      "outputs": [],
      "payable": false,
      "stateMutability": "nonpayable",
      "type": "function"
    },
    {
      "constant": false,
      "inputs": [
        {
          "name": "addr",
          "type": "address"
        }
      ],
      "name": "vote",
      "outputs": [],
      "payable": false,
      "stateMutability": "nonpayable",
      "type": "function"
    },
    {
      "constant": true,
      "inputs": [],
      "name": "getWinner",
      "outputs": [
        {
          "name": "won",
          "type": "address"
        }
      ],
      "payable": false,
      "stateMutability": "view",
      "type": "function"
    },
    {
      "constant": true,
      "inputs": [],
      "name": "queryVotersLeft",
      "outputs": [
        {
          "name": "votersLeft",
          "type": "uint256"
        }
      ],
      "payable": false,
      "stateMutability": "view",
      "type": "function"
    },
    {
      "constant": true,
      "inputs": [],
      "name": "queryNumberVoters",
      "outputs": [
        {
          "name": "voters",
          "type": "uint256"
        }
      ],
      "payable": false,
      "stateMutability": "view",
      "type": "function"
    },
    {
      "constant": true,
      "inputs": [
        {
          "name": "addr",
          "type": "address"
        }
      ],
      "name": "queryCommittee",
      "outputs": [
        {
          "name": "canVoteAsCommittee",
          "type": "bool"
        }
      ],
      "payable": false,
      "stateMutability": "view",
      "type": "function"
    },
    {
      "constant": true,
      "inputs": [],
      "name": "queryIsRegistered",
      "outputs": [
        {
          "name": "canVote",
          "type": "bool"
        }
      ],
      "payable": false,
      "stateMutability": "view",
      "type": "function"
    },
    {
      "constant": true,
      "inputs": [],
      "name": "queryStateInt",
      "outputs": [
        {
          "name": "stateInt",
          "type": "uint256"
        }
      ],
      "payable": false,
      "stateMutability": "view",
      "type": "function"
    },
    {
      "constant": true,
      "inputs": [],
      "name": "queryState",
      "outputs": [
        {
          "name": "currentState",
          "type": "string"
        }
      ],
      "payable": false,
      "stateMutability": "view",
      "type": "function"
    },
    {
      "constant": true,
      "inputs": [],
      "name": "queryCurrentFirst",
      "outputs": [
        {
          "name": "inFirst",
          "type": "address"
        }
      ],
      "payable": false,
      "stateMutability": "view",
      "type": "function"
    },
    {
      "constant": true,
      "inputs": [],
      "name": "queryCurrentSecond",
      "outputs": [
        {
          "name": "inSecond",
          "type": "address"
        }
      ],
      "payable": false,
      "stateMutability": "view",
      "type": "function"
    }
  ],
  "bytecode": "0x608060405234801561001057600080fd5b50336000806101000a81548173ffffffffffffffffffffffffffffffffffffffff021916908373ffffffffffffffffffffffffffffffffffffffff1602179055506000600c819055506000600a819055506000600b819055506000600781905550600060088190555061122a806100886000396000f3fe6080604052600436106100e6576000357c0100000000000000000000000000000000000000000000000000000000900463ffffffff1680631ad98868146100eb57806338046217146101025780635337e18e146101535780635ac1c4f01461017e5780635f9bb8e3146101a95780636cac926f146101c05780636d04aae2146101ef5780636dd7d8ea1461020657806374a488c0146102575780637f908e5914610282578063805928b6146102d9578063873e9e19146102f05780638e7ea5b214610380578063bc01bfcb146103d7578063c55f8f7614610440578063df9dcd1414610457575b600080fd5b3480156100f757600080fd5b506101006104ae565b005b34801561010e57600080fd5b506101516004803603602081101561012557600080fd5b81019080803573ffffffffffffffffffffffffffffffffffffffff169060200190929190505050610582565b005b34801561015f57600080fd5b506101686106b3565b6040518082815260200191505060405180910390f35b34801561018a57600080fd5b506101936106bd565b6040518082815260200191505060405180910390f35b3480156101b557600080fd5b506101be6106c7565b005b3480156101cc57600080fd5b506101d561079c565b604051808215151515815260200191505060405180910390f35b3480156101fb57600080fd5b506102046107f0565b005b34801561021257600080fd5b506102556004803603602081101561022957600080fd5b81019080803573ffffffffffffffffffffffffffffffffffffffff169060200190929190505050610863565b005b34801561026357600080fd5b5061026c610db0565b6040518082815260200191505060405180910390f35b34801561028e57600080fd5b50610297610dba565b604051808273ffffffffffffffffffffffffffffffffffffffff1673ffffffffffffffffffffffffffffffffffffffff16815260200191505060405180910390f35b3480156102e557600080fd5b506102ee610de4565b005b3480156102fc57600080fd5b50610305610e9b565b6040518080602001828103825283818151815260200191508051906020019080838360005b8381101561034557808201518184015260208101905061032a565b50505050905090810190601f1680156103725780820380516001836020036101000a031916815260200191505b509250505060405180910390f35b34801561038c57600080fd5b50610395611041565b604051808273ffffffffffffffffffffffffffffffffffffffff1673ffffffffffffffffffffffffffffffffffffffff16815260200191505060405180910390f35b3480156103e357600080fd5b50610426600480360360208110156103fa57600080fd5b81019080803573ffffffffffffffffffffffffffffffffffffffff16906020019092919050505061107c565b604051808215151515815260200191505060405180910390f35b34801561044c57600080fd5b506104556110d2565b005b34801561046357600080fd5b5061046c6111d4565b604051808273ffffffffffffffffffffffffffffffffffffffff1673ffffffffffffffffffffffffffffffffffffffff16815260200191505060405180910390f35b6002600c541415156104bf57600080fd5b600260003373ffffffffffffffffffffffffffffffffffffffff1673ffffffffffffffffffffffffffffffffffffffff16815260200190815260200160002060009054906101000a900460ff16151561051757600080fd5b6001600b600082825401925050819055506000600260003373ffffffffffffffffffffffffffffffffffffffff1673ffffffffffffffffffffffffffffffffffffffff16815260200190815260200160002060006101000a81548160ff021916908315150217905550565b6000600c5414151561059357600080fd5b6000809054906101000a900473ffffffffffffffffffffffffffffffffffffffff1673ffffffffffffffffffffffffffffffffffffffff163373ffffffffffffffffffffffffffffffffffffffff161415156105ee57600080fd5b600260008273ffffffffffffffffffffffffffffffffffffffff1673ffffffffffffffffffffffffffffffffffffffff16815260200190815260200160002060009054906101000a900460ff1615151561064757600080fd5b6001600260008373ffffffffffffffffffffffffffffffffffffffff1673ffffffffffffffffffffffffffffffffffffffff16815260200190815260200160002060006101000a81548160ff021916908315150217905550600160076000828254019250508190555050565b6000600854905090565b6000600c54905090565b6001600c541415156106d857600080fd5b600360003373ffffffffffffffffffffffffffffffffffffffff1673ffffffffffffffffffffffffffffffffffffffff16815260200190815260200160002060009054906101000a900460ff1615151561073157600080fd5b6001600360003373ffffffffffffffffffffffffffffffffffffffff1673ffffffffffffffffffffffffffffffffffffffff16815260200190815260200160002060006101000a81548160ff0219169083151502179055506001600860008282540192505081905550565b6000600360003373ffffffffffffffffffffffffffffffffffffffff1673ffffffffffffffffffffffffffffffffffffffff16815260200190815260200160002060009054906101000a900460ff16905090565b6001600c5414151561080157600080fd5b600260003373ffffffffffffffffffffffffffffffffffffffff1673ffffffffffffffffffffffffffffffffffffffff16815260200190815260200160002060009054906101000a900460ff16151561085957600080fd5b6002600c81905550565b6003600c5414151561087457600080fd5b600360003373ffffffffffffffffffffffffffffffffffffffff1673ffffffffffffffffffffffffffffffffffffffff16815260200190815260200160002060009054906101000a900460ff1615156108cc57600080fd5b6001600460008373ffffffffffffffffffffffffffffffffffffffff1673ffffffffffffffffffffffffffffffffffffffff1681526020019081526020016000206000828254019250508190555060016009600082825403925050819055506000600360003373ffffffffffffffffffffffffffffffffffffffff1673ffffffffffffffffffffffffffffffffffffffff16815260200190815260200160002060006101000a81548160ff021916908315150217905550600560009054906101000a900473ffffffffffffffffffffffffffffffffffffffff1673ffffffffffffffffffffffffffffffffffffffff168173ffffffffffffffffffffffffffffffffffffffff1614158015610a80575060046000600560009054906101000a900473ffffffffffffffffffffffffffffffffffffffff1673ffffffffffffffffffffffffffffffffffffffff1673ffffffffffffffffffffffffffffffffffffffff16815260200190815260200160002054600460008373ffffffffffffffffffffffffffffffffffffffff1673ffffffffffffffffffffffffffffffffffffffff16815260200190815260200160002054115b15610b2e57600560009054906101000a900473ffffffffffffffffffffffffffffffffffffffff16600660006101000a81548173ffffffffffffffffffffffffffffffffffffffff021916908373ffffffffffffffffffffffffffffffffffffffff16021790555080600560006101000a81548173ffffffffffffffffffffffffffffffffffffffff021916908373ffffffffffffffffffffffffffffffffffffffff160217905550610c73565b600560009054906101000a900473ffffffffffffffffffffffffffffffffffffffff1673ffffffffffffffffffffffffffffffffffffffff168173ffffffffffffffffffffffffffffffffffffffff1614158015610c2b575060046000600660009054906101000a900473ffffffffffffffffffffffffffffffffffffffff1673ffffffffffffffffffffffffffffffffffffffff1673ffffffffffffffffffffffffffffffffffffffff16815260200190815260200160002054600460008373ffffffffffffffffffffffffffffffffffffffff1673ffffffffffffffffffffffffffffffffffffffff16815260200190815260200160002054115b15610c725780600660006101000a81548173ffffffffffffffffffffffffffffffffffffffff021916908373ffffffffffffffffffffffffffffffffffffffff1602179055505b5b60095460046000600660009054906101000a900473ffffffffffffffffffffffffffffffffffffffff1673ffffffffffffffffffffffffffffffffffffffff1673ffffffffffffffffffffffffffffffffffffffff168152602001908152602001600020540160046000600560009054906101000a900473ffffffffffffffffffffffffffffffffffffffff1673ffffffffffffffffffffffffffffffffffffffff1673ffffffffffffffffffffffffffffffffffffffff168152602001908152602001600020541115610dad576004600c81905550600560009054906101000a900473ffffffffffffffffffffffffffffffffffffffff16600160006101000a81548173ffffffffffffffffffffffffffffffffffffffff021916908373ffffffffffffffffffffffffffffffffffffffff1602179055505b50565b6000600954905090565b6000600560009054906101000a900473ffffffffffffffffffffffffffffffffffffffff16905090565b6000809054906101000a900473ffffffffffffffffffffffffffffffffffffffff1673ffffffffffffffffffffffffffffffffffffffff163373ffffffffffffffffffffffffffffffffffffffff16141515610e3f57600080fd5b6000600c54141515610e5057600080fd5b60008060006101000a81548173ffffffffffffffffffffffffffffffffffffffff021916908373ffffffffffffffffffffffffffffffffffffffff1602179055506001600c81905550565b60606000600c541415610ee5576040805190810160405280601881526020017f616464696e6720636f6d6d6974746565206d656d626572730000000000000000815250905061103e565b6001600c541415610f2d576040805190810160405280601681526020017f726567697374726174696f6e206f6620766f7465727300000000000000000000815250905061103e565b6002600c541415610f75576040805190810160405280601681526020017f707265766f74696e6720766572696669636174696f6e00000000000000000000815250905061103e565b6003600c541415610fbd576040805190810160405280600c81526020017f766f74696e672070686173650000000000000000000000000000000000000000815250905061103e565b6004600c541415611005576040805190810160405280600981526020017f66696e616c697a65640000000000000000000000000000000000000000000000815250905061103e565b6040805190810160405280600581526020017f6572726f7200000000000000000000000000000000000000000000000000000081525090505b90565b60006004600c5414151561105457600080fd5b600160009054906101000a900473ffffffffffffffffffffffffffffffffffffffff16905090565b6000600260008373ffffffffffffffffffffffffffffffffffffffff1673ffffffffffffffffffffffffffffffffffffffff16815260200190815260200160002060009054906101000a900460ff169050919050565b6002600c541415156110e357600080fd5b600260003373ffffffffffffffffffffffffffffffffffffffff1673ffffffffffffffffffffffffffffffffffffffff16815260200190815260200160002060009054906101000a900460ff16151561113b57600080fd5b6001600a600082825401925050819055506000600260003373ffffffffffffffffffffffffffffffffffffffff1673ffffffffffffffffffffffffffffffffffffffff16815260200190815260200160002060006101000a81548160ff0219169083151502179055506064600754604b028115156111b557fe5b04600a541015156111d2576003600c819055506008546009819055505b565b6000600660009054906101000a900473ffffffffffffffffffffffffffffffffffffffff1690509056fea165627a7a7230582046768c7f214c170033d9cf4e997a360580ac91ca4081c837e00ada4efb8c37660029",
  "source": "pragma solidity >= 0.4.24;\n\n\ncontract VotingSystem {\n    uint constant committeePercentNeeded = 75;\n\n    uint constant STATE_ADD_COMMITTEE = 0;\n    uint constant STATE_REGISTRATION = 1;\n    uint constant STATE_PREVOTING = 2;\n    uint constant STATE_VOTING = 3;\n    uint constant STATE_FINALIZED = 4;\n\n\n\n    address admin;\n    address winner;\n    mapping (address => bool) committee;\n    mapping (address => bool) population;\n    mapping (address => uint) candidates;\n    address currentFirst;\n    address currentSecond;\n    uint committeeSize;\n    uint populationSize;\n    uint populationLeftToVote;\n    uint beginVoting;\n    uint terminateVoting;\n    uint state;\n\n    constructor() public {\n        admin = msg.sender;\n        state = STATE_ADD_COMMITTEE;\n        beginVoting = 0;\n        terminateVoting = 0;\n        committeeSize = 0;\n        populationSize = 0;\n    }\n\n    function addCommittee(address addr) public {\n        require(state == STATE_ADD_COMMITTEE);\n        require(msg.sender == admin);\n        require(!committee[addr]);\n        committee[addr] = true;\n        committeeSize += 1;\n    }\n    function beginRegistration() public {\n        require(msg.sender == admin);\n        require(state == STATE_ADD_COMMITTEE);\n\n        admin = 0x0000000000000000000000000000000000000000;\n        state = STATE_REGISTRATION;\n    }\n\n    function addVoter() public {\n        require(state == STATE_REGISTRATION);\n        require(!population[msg.sender]);\n        population[msg.sender] = true;\n        populationSize += 1;\n    }\n\n    function initializeVoting() public {\n        require(state == STATE_REGISTRATION);\n        require(committee[msg.sender]);\n\n        state = STATE_PREVOTING;\n    }\n\n    function confirmVoting() public {\n        require(state == STATE_PREVOTING);\n        require(committee[msg.sender]);\n\n        beginVoting += 1;\n        committee[msg.sender] = false;\n        if(beginVoting >= (committeePercentNeeded * committeeSize) / 100) {\n            state = STATE_VOTING;\n            populationLeftToVote = populationSize;\n        }\n    }\n\n    function denyVoting() public {\n        require(state == STATE_PREVOTING);\n        require(committee[msg.sender]);\n\n        terminateVoting += 1;\n        committee[msg.sender] = false;\n    }\n\n    function vote(address addr) public {\n        require(state == STATE_VOTING);\n        require(population[msg.sender]);\n\n        candidates[addr] += 1;\n        populationLeftToVote -= 1;\n        population[msg.sender] = false;\n\n        if(addr != currentFirst && candidates[addr] > candidates[currentFirst]) {\n            currentSecond = currentFirst;\n            currentFirst = addr;\n            } else if(addr != currentFirst && candidates[addr] > candidates[currentSecond]) {\n                currentSecond = addr;\n            }\n            if(candidates[currentFirst] > candidates[currentSecond] + populationLeftToVote) {\n                state = STATE_FINALIZED;\n                winner = currentFirst;\n            }\n        }\n\n        function getWinner() public view returns (address won) {\n            require(state == STATE_FINALIZED);\n            return winner;\n        }\n\n        function queryVotersLeft() public view returns (uint votersLeft) {\n            return populationLeftToVote;\n        }\n\n        function queryNumberVoters() public view returns (uint voters) {\n            return populationSize;\n        }\n\n        function queryCommittee(address addr) public view returns (bool canVoteAsCommittee) {\n            return committee[addr];\n        }\n\n        function queryIsRegistered() public view returns (bool canVote) {\n            return population[msg.sender];\n        }\n\n        function queryStateInt() public view returns (uint stateInt) {\n            return state;\n        }\n\n        function queryState() public view returns (string memory currentState) {\n            if(state == STATE_ADD_COMMITTEE) {\n                return \"adding committee members\";\n            }\n            if(state == STATE_REGISTRATION) {\n                return \"registration of voters\";\n            }\n            if(state == STATE_PREVOTING) {\n                return \"prevoting verification\";\n            }\n            if(state == STATE_VOTING) {\n                return \"voting phase\";\n            }\n            if(state == STATE_FINALIZED) {\n                return \"finalized\";\n            }\n            return \"error\";\n        }\n\n        function queryCurrentFirst() public view returns (address inFirst) {\n            return currentFirst;\n        }\n\n        function queryCurrentSecond() public view returns (address inSecond) {\n            return currentSecond;\n        }\n    }\n\ncontract ThrowProxy {\n    address public _target;\n    bytes _data;\n\n    constructor(address target) public {\n        _target = target;\n    }\n\n    function () external {\n        _data = msg.data;\n    }\n\n    function execute() public returns (bool) {\n        bool r;\n        bytes memory ret;\n        (r, ret) = _target.call(_data);\n\n        return r;\n    }\n}\n\ncontract testVotingSystem {\n\n    function failCommitteeMember(address notOwner, address committee) public returns (bool success) {\n        //VotingSytem votingSystem = new VotingSytem();   // pass in as argument\n        //ThrowProxy throwproxy = new ThrowProxy(address(notOwner));  // pass in as argument\n        //VotingSytem(address(throwproxy)).addCommittee(committee);\n        //bool r = throwproxy.execute.gas(200000)();\n        bool r = false;\n        return r;\n    }\n\n}\n\n",
  "sourcePath": "/home/maxwell/Blockchain/truffleProjects/VotingProject/contracts/VotingSystem.sol",
  "compiler": {
    "name": "solc",
    "version": "0.5.0+commit.1d4f565a.Emscripten.clang"
  },
  "schemaVersion": "3.0.1",
  "updatedAt": "2019-02-25T20:15:03.911Z",
  "devdoc": {
    "methods": {}
  },
  "userdoc": {
    "methods": {}
  }
}